S011000067656E65726170776D2E737265634D
S113000071C0000086C0000084C0000082C00000EF
S113001080C000007EC000007CC000007AC00000E8
S113002078C0000076C0000074C0000072C00000F8
S113003070C000006EC000006CC000006AC0000008
S113004068C0000066C0000064C0000062C0000018
S113005060C000005EC000005CC00000BCC00000C6
S113006058C0000056C0000054C0000052C0000038
S113007050C000004EC000004CC000004AC0000048
S113008048C0000046C0000044C0000042C0000058
S113009040C000003EC000003CC000003AC0000068
S11300A038C0000036C0000034C0000032C0000078
S11300B030C000002EC000002CC000002AC0000088
S11300C028C0000026C0000024C0000022C0000098
S11300D020C000001EC000001CC000001AC00000A8
S11300E018C0000011241FBECFEFD1E2DEBFCDBF88
S11300F000E00CBF12E0A0E0B2E0E8EFF5E000E0C1
S11301000BBF02C007900D92A830B107D9F702D0F7
S113011071C276CF80E884B983E884BD81E080939E
S11301206E0020E030E048EC52E4609104027091EB
S113013005028091060290910702ECD020E030E0A5
S11301404FE753E4D0D14ED167BD20E030E048EC16
S113015052E4609100027091010280910202909138
S11301600302D8D020E030E04FE753E4BCD13AD1C9
S113017068BD789485E085BD269A2FE78AE196E0EC
S1130180215080409040E1F700C0000020E030E0C2
S113019040E251E4609104027091050280910602EC
S11301A09091070253D060930402709305028093E8
S11301B006029093070220E030E048EC52E48FD12D
S11301C01816DCF610920402109205021092060230
S11301D010920702D2CF1F920F920FB60F921124E2
S11301E00BB60F922F933F934F935F936F937F932D
S11301F08F939F93AF93BF93EF93FF9320E030E0EF
S113020048EC52E460910402709105028091060268
S1130210909107027FD020E030E04FE753E463D1B0
S1130220E1D067BDFF91EF91BF91AF919F918F9105
S11302307F916F915F914F913F912F910F900BBEE2
S11302400F900FBE0F901F9018955058BB27AA27E8
S11302500ED00BC1FCD030F001D120F031F49F3F1F
S113026011F41EF4F1C00EF4E095E7FBE7C0E92FAA
S11302700DD180F3BA17620773078407950718F046
S113028071F49EF525C10EF4E0950B2EBA2FA02D26
S11302900B01B90190010C01CA01A0011124FF272F
S11302A0591B99F0593F50F4503E68F11A16F0402A
S11302B0A22F232F342F4427585FF3CF4695379529
S11302C02795A795F0405395C9F77EF41F16BA0BEE
S11302D0620B730B840BBAF09150A1F0FF0FBB1F9C
S11302E0661F771F881FC2F70EC0BA0F621F731FE5
S11302F0841F48F4879577956795B795F7959E3F42
S113030008F0B3CF9395880F08F09927EE0F9795CF
S1130310879508950CD0A9C0A1D040F098D030F0B2
S113032021F45F3F19F08AC05111D3C08DC0AED003
S113033098F39923C9F35523B1F3951B550BBB27A8
S1130340AA2762177307840738F09F5F5F4F220F55
S1130350331F441FAA1FA9F333D00E2E3AF0E0E84E
S113036030D091505040E695001CCAF729D0FE2F9A
S113037027D0660F771F881FBB1F2617370748072C
S1130380AB07B0E809F0BB0B802DBF01FF279358E2
S11303905F4F2AF09E3F510568F050C09AC05F3FFE
S11303A0ECF3983EDCF3869577956795B795F795CA
S11303B09F5FC9F7880F911D9695879597F90895C2
S11303C0E1E0660F771F881FBB1F6217730784075E
S11303D0BA0720F0621B730B840BBA0BEE1F88F76D
S11303E0E09508955BD088F09F5790F0B92F992736
S11303F0B751A0F0D1F0660F771F881F991F1AF02C
S1130400BA95C9F712C0B13081F062D0B1E0089555
S11304105FC0672F782F8827B85F39F0B93FCCF3D6
S1130420869577956795B395D9F73EF49095809521
S1130430709561957F4F8F4F9F4F089597F99F67F0
S113044080E870E060E008959FEF80EC0895002458
S11304500A941616170618060906089500240A9425
S113046012161306140605060895092E0394000CAB
S113047011F4882352F0BB0F40F4BF2B11F460FF3A
S113048004C06F5F7F4F8F4F9F4F089557FD905863
S1130490440F551F59F05F3F71F04795880F97FB44
S11304A0991F61F09F3F79F08795089512161306FE
S11304B01406551FF2CF4695F1DF08C0161617062D
S11304C01806991FF1CF8695710561050894089562
S11304D0E894BB2766277727CB0197F9089566D060
S11304E008F48FEF08950BD0C0CFB1DF28F0B6DF4A
S11304F018F0952309F0A2CFA7CF1124EACFC6DFC5
S1130500A0F3959FD1F3950F50E0551F629FF00122
S1130510729FBB27F00DB11D639FAA27F00DB11D7B
S1130520AA1F649F6627B00DA11D661F829F222704
S1130530B00DA11D621F739FB00DA11D621F839F8B
S1130540A00D611D221F749F3327A00D611D231F61
S1130550849F600D211D822F762F6A2F11249F57AF
S113056050408AF0E1F088234AF0EE0FFF1FBB1FD2
S1130570661F771F881F91505040A9F79E3F510571
S113058070F05CCFA6CF5F3FECF3983EDCF386952A
S113059077956795B795F795E7959F5FC1F7FE2B1C
S11305A0880F911D9695879597F90895990F0008DE
S11305B0550FAA0BE0E8FEEF16161706E807F90731
S11305C0C0F012161306E407F50798F0621B730BCC
S11305D0840B950B39F40A2661F0232B242B252B4D
S11305E021F408950A2609F4A140A6958FEF811DF0
S10B05F0811D0895F894FFCF6A
S10B05F80000484200004842E3
S9030000FC
