S0140000656A656D706C6F5F6C6564732E737265631D
S113000071C0000086C0000084C0000082C00000EF
S113001080C000007EC000007CC000007AC00000E8
S113002078C0000076C0000074C0000072C00000F8
S113003070C000006EC000006CC000006AC0000008
S113004068C0000094C0000064C0000062C00000EA
S113005060C000005EC000005CC00000F8C000008A
S113006058C0000056C0000054C0000052C0000038
S113007050C000004EC000004CC000004AC0000048
S113008048C0000046C0000044C0000042C0000058
S113009040C000003EC000003CC000003AC0000068
S11300A038C0000036C0000034C0000032C0000078
S11300B030C000002EC000002CC000002AC0000088
S11300C028C0000026C0000024C0000022C0000098
S11300D020C000001EC000001CC000001AC00000A8
S11300E018C0000011241FBECFEFD1E2DEBFCDBF88
S11300F000E00CBF12E0A0E0B2E0E2E3F7E000E0D1
S11301000BBF02C007900D92A830B107D9F7D9D020
S11301100EC376CF109285001092840089E18093FB
S1130120810082E88093800088EA91E690938700BA
S11301308093860020E030E048EC52E460910002B5
S113014070910102809102029091030280D120E01B
S11301503EE443EC56E464D2E2D1709389006093A8
S11301608800EFE6F0E080818260808308951F922A
S11301700F920FB60F9211240BB60F922F933F9349
S11301804F935F936F937F938F939F93AF93BF939B
S1130190EF93FF9320E030E048EC52E460910002DA
S11301A070910102809102029091030250D120E0EB
S11301B03EE443EC56E434D2B2D1709389006093A8
S11301C0880020E030E048EC52E460910402709131
S11301D00502809106029091070239D120E03EE4A5
S11301E043EC56E41DD29BD170938B0060938A003C
S11301F0FF91EF91BF91AF919F918F917F916F91FB
S11302005F914F913F912F910F900BBE0F900FBEB6
S11302100F901F90189583E884BD81E080936E0051
S113022020E030E048EC52E4609104027091050251
S113023080910602909107020AD120E030E04FE756
S113024053E4EED16CD167BD85E085BD08951F925E
S11302500F920FB60F9211240BB60F922F933F9368
S11302604F935F936F937F938F939F93AF93BF93BA
S1130270EF93FF9320E030E048EC52E460910402F5
S1130280709105028091060290910702E0D020E06F
S113029030E04FE753E4C4D142D167BDFF91EF9101
S11302A0BF91AF919F918F917F916F915F914F918A
S11302B03F912F910F900BBE0F900FBE0F901F9088
S11302C0189584B1806E84B9E1E0F1E080818067A3
S11302D08083A1DF1FDF78942FE78AE196E0215025
S11302E080409040E1F700C0000020E030E040E2B0
S11302F051E460910402709105028091060290918C
S1130300070241D06B017C0120E030E048EC52E46C
S113031083D118164CF0C0920402D0920502E092E8
S11303200602F092070208C010920402109205021D
S1130330109206021092070220E030E040E251E4FD
S11303406091000270910102809102029091030277
S11303501AD060930002709301028093020290937A
S1130360030220E030E048EC52E456D118160CF0B9
S1130370B3CF109200021092010210920202109266
S11303800302AACF5058BB27AA270ED00BC1FCD01A
S113039030F001D120F031F49F3F11F41EF4F1C08C
S11303A00EF4E095E7FBE7C0E92F0DD180F3BA170F
S11303B0620773078407950718F071F49EF525C149
S11303C00EF4E0950B2EBA2FA02D0B01B90190016C
S11303D00C01CA01A0011124FF27591B99F0593FB0
S11303E050F4503E68F11A16F040A22F232F342FF8
S11303F04427585FF3CF469537952795A795F04046
S11304005395C9F77EF41F16BA0B620B730B840B5A
S1130410BAF09150A1F0FF0FBB1F661F771F881F12
S1130420C2F70EC0BA0F621F731F841F48F487956A
S113043077956795B795F7959E3F08F0B3CF939559
S1130440880F08F09927EE0F9795879508950CD09B
S1130450A9C0A1D040F098D030F021F45F3F19F04A
S11304608AC05111D3C08DC0AED098F39923C9F37B
S11304705523B1F3951B550BBB27AA2762177307A6
S1130480840738F09F5F5F4F220F331F441FAA1F5A
S1130490A9F333D00E2E3AF0E0E830D0915050401A
S11304A0E695001CCAF729D0FE2F27D0660F771FC8
S11304B0881FBB1F261737074807AB07B0E809F0AA
S11304C0BB0B802DBF01FF2793585F4F2AF09E3F3F
S11304D0510568F050C09AC05F3FECF3983EDCF3DE
S11304E0869577956795B795F7959F5FC9F7880FB8
S11304F0911D9695879597F90895E1E0660F771F0A
S1130500881FBB1F621773078407BA0720F0621B9A
S1130510730B840BBA0BEE1F88F7E09508955BD03C
S113052088F09F5790F0B92F9927B751A0F0D1F0D8
S1130530660F771F881F991F1AF0BA95C9F712C062
S1130540B13081F062D0B1E008955FC0672F782F99
S11305508827B85F39F0B93FCCF3869577956795CE
S1130560B395D9F73EF490958095709561957F4F3A
S11305708F4F9F4F089597F99F6780E870E060E080
S113058008959FEF80EC089500240A941616170628
S113059018060906089500240A9412161306140670
S11305A005060895092E0394000C11F4882352F0D3
S11305B0BB0F40F4BF2B11F460FF04C06F5F7F4F8B
S11305C08F4F9F4F089557FD9058440F551F59F072
S11305D05F3F71F04795880F97FB991F61F09F3F2C
S11305E079F087950895121613061406551FF2CF55
S11305F04695F1DF08C0161617061806991FF1CFA5
S113060086957105610508940895E894BB276627CB
S11306107727CB0197F9089566D008F48FEF0895F2
S11306200BD0C0CFB1DF28F0B6DF18F0952309F066
S1130630A2CFA7CF1124EACFC6DFA0F3959FD1F3B1
S1130640950F50E0551F629FF001729FBB27F00D7C
S1130650B11D639FAA27F00DB11DAA1F649F6627D1
S1130660B00DA11D661F829F2227B00DA11D621F20
S1130670739FB00DA11D621F839FA00D611D221FDA
S1130680749F3327A00D611D231F849F600D211DBE
S1130690822F762F6A2F11249F5750408AF0E1F061
S11306A088234AF0EE0FFF1FBB1F661F771F881FAA
S11306B091505040A9F79E3F510570F05CCFA6CFF2
S11306C05F3FECF3983EDCF3869577956795B79595
S11306D0F795E7959F5FC1F7FE2B880F911D9695BF
S11306E0879597F90895990F0008550FAA0BE0E82C
S11306F0FEEF16161706E807F907C0F012161306E0
S1130700E407F50798F0621B730B840B950B39F41F
S11307100A2661F0232B242B252B21F408950A2685
S113072009F4A140A6958FEF811D811D0895F894C9
S1050730FFCFF5
S10B07320000A042000048424F
S9030000FC
