S01B0000656E7669615F7265636962655F73657269616C2E737265634E
S113000071C000008EC000008CC000008AC00000D7
S113001088C0000086C0000084C0000082C00000C8
S113002080C000007EC000007CC000007AC00000D8
S113003078C0000076C0000074C0000072C00000E8
S113004070C000006EC000006CC000006AC00000F8
S113005068C0000066C0000064C0000062C0000008
S113006060C000005EC000005CC000005AC0000018
S113007058C0000056C0000054C0000052C0000028
S113008050C000004EC000004CC000004AC0000038
S113009048C0000046C0000044C0000042C0000048
S11300A040C000003EC000003CC000003AC0000058
S11300B038C0000036C0000034C0000032C0000068
S11300C030C000002EC000002CC000002AC0000078
S11300D028C0000026C0000025C0000022C0000087
S11300E09CC0000011241FBECFEFD1E2DEBFCDBF04
S11300F000E00CBF12E0A0E0B2E0E0E7F2E000E0D4
S11301000BBF02C007900D92A431B107D9F723E0C9
S1130110A4E1B2E001C01D92A731B207E1F758D0C3
S1130120A5C06ECF1F920F920FB60F9211240BB67B
S11301300F928F939F93EF93FF9380911602909168
S11301403601E82FF0E0E95EFD4F90838F5F1AF0EF
S11301508093160202C010921602FF91EF919F91B4
S11301608F910F900BBE0F900FBE0F901F9018959C
S113017090911402E92FF0E0E956FD4F80839F5FD0
S11301801AF09093140208951092140208951F9384
S1130190CF93DF93EC0110E006C0FE01E20FF31FE2
S11301A08081E6DF1F5F212F30E0FE0101900020F7
S11301B0E9F73197EC1BFD0B2E173F0770F3809185
S11301C0300185FD10923601DF91CF911F91089582
S11301D01092350187E68093340188ED80933101D4
S11301E086E080933201789480E092E0D0DF2FEFB4
S11301F083ED90E3215080409040E1F700C000007F
S11302008AE092E0C4DF2FEF83ED90E32150804039
S11302109040E1F700C00000F3CF1F920F920FB699
S11302200F9211240BB60F928F93EF93FF93E091EB
S1130230150280911402E81779F0F0E0E956FD4FB9
S1130240808180933601809115028F5F1AF080932C
S1130250150202C010921502FF91EF918F910F9039
S11302600BBE0F900FBE0F901F901895F894FFCF00
S11302700A0D48454C4C4F0A0D00474F4F444279F4
S1070280450A0D001A
S9030000FC
