S01C000050726F796563746F436F6E74726F6C4D6F746F722E73726563C1
S1130000AEC00000CBC00000C9C00000C7C00000E3
S1130010C5C00000C3C00000C1C00000BFC00000D4
S1130020BDC00000BBC00000B9C00000B7C00000E4
S1130030B5C00000B3C00000B1C00000AFC00000F4
S1130040ADC0000039C20000A9C00000A7C0000074
S1130050A5C00000A3C00000A1C000009FC0000014
S11300609DC000009BC0000099C0000097C0000024
S113007095C0000093C0000091C000008FC0000034
S11300808DC000008BC0000089C0000087C0000044
S113009085C0000083C0000081C000007FC0000054
S11300A07DC000007BC0000079C0000077C0000064
S11300B075C0000073C0000071C000006FC0000074
S11300C06DC000006BC0000069C0000067C0000084
S11300D065C0000063C0000045C100005FC00000AF
S11300E09AC00000AC01A701AE01AE01AE01AE01A1
S11300F0AE01AE01AE01AE01AE01AE01AE01AE0184
S1130100AE01AE01AE01AE019101AE017F01AE01BF
S1130110AE01AE01AE01AE01AE01AE01AE01AE0163
S1130120AE01AE01AC01A701AE01AE01AE01AE015C
S1130130AE01AE01AE01AE01AE01AE01AE01AE0143
S1130140AE01AE01AE01AE019101AE017F01C2026A
S1130150C502CA02CF02D402D902DE02E30211248C
S11301601FBECFEFD1E2DEBFCDBF00E00CBF13E076
S1130170A0E0B2E0E0E9FBE000E00BBF02C00790C2
S11301800D92A43EB107D9F725E0A4EEB3E001C077
S11301901D92A238B207E1F7BAD1F8C431CF109258
S11301A0350187E68093340188ED8093310186E040
S11301B08093320108959091E403E92FF0E0E8512F
S11301C0FB4F80839F5F1AF09093E403089510928D
S11301D0E40308951F93CF93DF93EC0110E006C06E
S11301E0FE01E20FF31F8081E6DF1F5F212F30E065
S11301F0FE0101900020E9F73197EC1BFD0B2E174F
S11302003F0770F38091300185FD10923601DF9134
S1130210CF911F9108951F920F920FB60F92112440
S11302200BB60F928F93EF93FF93E091E5038091C8
S1130230E403E81779F0F0E0E851FB4F8081809304
S113024036018091E5038F5F1AF08093E50302C0C5
S11302501092E503FF91EF918F910F900BBE0F90D9
S11302600FBE0F901F901895CF93DF93CDB7DEB7D5
S113027064970FB6F894DEBF0FBECDBF4AE0BE014F
S11302806F5F7F4F50D4CE010196A4DF64960FB602
S1130290F894DEBF0FBECDBFDF91CF910895FC016E
S11302A0E859FB4F20812223B9F0FC01E759FB4FA9
S11302B080E090E0AC01440F551F880F991F880F10
S11302C0991F880F991F840F951F820F911DC09746
S11302D021912111EFCF089580E090E00895E091FD
S11302E068048E2F90E0FC01E454F109E533F10534
S11302F008F034C08827EE58FF4F8F4F0CC480910C
S113030069048F3349F480E092E064DF74D2ACDF97
S113031088EA93E05FCF089581E090E0C0DF59C29E
S11303200895809169048F3349F483E092E052DFA9
S113033045D29ADF88EA93E04DCF089581E090E0BA
S1130340AEDF80362AEE920760F4D5C1089581E0CD
S113035090E0A5DFF0C0089553C2089586E092E0CE
S113036039CF08951F920F920FB60F9211240BB636
S11303700F922F933F934F935F936F937F938F933A
S11303809F93AF93BF93EF93FF93809136018D308A
S113039069F08A3309F51092E7031092E60381E0CD
S11303A090E090936905809368052BC0809168055F
S11303B090916905019729F5E091E603F091E7032F
S11303C0E859FB4F10828BDF109269051092680583
S11303D08EE092E0FFDE15C02091E6033091E70342
S11303E02038310558F4F901E859FB4F80832F5F19
S11303F03F4F3093E7032093E60303C083E192E089
S1130400E9DEFF91EF91BF91AF919F918F917F9121
S11304106F915F914F913F912F910F900BBE0F9071
S11304200FBE0F901F90189581E392E0D3DE2FEF5B
S113043081EE94E0215080409040E1F700C000003C
S11304408CE692E0C7DE2FEF81EE94E021508040ED
S11304509040E1F700C0000089EA92E0BBDE2FEF94
S113046081EE94E0215080409040E1F700C000000C
S113047080EF92E0AFDE2FEF81EE94E021508040D8
S11304809040E1F700C0000087E393E0A3DE8EE72D
S113049093E0A0CE0895E1E8F0E088E080838CE268
S11304A09CE4909389008093880082E080936F009D
S11304B080818560808308951F920F920FB60F92FA
S11304C011240BB60F922F933F934F935F936F9327
S11304D07F938F939F93AF93BF93EF93FF93B5D085
S11304E095B181E0892785B9FF91EF91BF91AF91D3
S11304F09F918F917F916F915F914F913F912F9138
S11305000F900BBE0F900FBE0F901F90189581E0B7
S113051084B921D144DEBFDF789481EA93E05ADEC6
S11305202FEF83ED90E3215080409040E1F700C02D
S113053000007ADFFFCF8130910529F482E085B98C
S113054080E090E00895892B21F415B880E090E0D4
S113055008958BEA93E03EDE8FEF9FEF089583B119
S11305608695817090E0089520917E0530917F05F5
S1130570F9013197E830F10558F58827E955FF4F1F
S11305808F4FC9C281E088B928C085E088B921E0CD
S113059030E023C084E088B921E030E01EC086E06A
S11305A088B921E030E019C082E088B921E030E068
S11305B014C08AE088B921E030E00FC088E088B92F
S11305C021E030E00AC089E088B921E030E005C0CC
S11305D08BEB93E0FFDD20E030E0C90108958091CA
S11305E07A0590917B05892B99F080917E059091F5
S11305F07F058830910539F481E090E090937F0580
S113060080937E0505C0019690937F0580937E05B7
S1130610ABCF089580917A0590917B05892B99F051
S113062080917E0590917F058130910539F488E0B1
S113063090E090937F0580937E0505C00197909389
S11306407F0580937E0590CF089589DF892B09F477
S113065051C0809178059091790520917C05309165
S11306607D058217930739F481E090E090936D053E
S113067080936C05089520917C0530917D05821747
S1130680930704F520917C0530917D0580916E05DA
S113069090916F0528173907ACF410926D051092EC
S11306A06C0581E090E0909381058093800597DF4D
S11306B080917805909179050196909379058093BE
S11306C07805089580917C0590917D05992394F097
S11306D010926D0510926C051092810510928005A0
S11306E099DF809178059091790501979093790528
S11306F0809378050895BC01990F880B990B1CD140
S113070060937405709375058093760590937705CF
S113071060917405709175058091760590917705C7
S113072020917005309171054091720550917305C7
S11307308FD19B01AC0160E070E080E792E461D06E
S113074020E034E244E756E483D1C8D070938900B2
S11307506093880008958FEF87B984B192E0892768
S113076084B995B980E090E0A0E4B2E48093700588
S113077090937105A0937205B093730584E690E09D
S1130780BADF81E090E090936B0580936A059093C3
S11307907B0580937A0510927F0510927E0580E197
S11307A097E290936F0580936E05109279051092ED
S11307B0780510927D0510927C050895609174056A
S11307C070917505809176059091770582D0CB0163
S11307D00895992364F020916E0530916F05821776
S11307E093072CF490937D0580937C05089586EC03
S11307F093E0F0CC0895809178059091790508955F
S113080008950CD0EBC0E3D040F0DAD030F021F4FE
S11308105F3F19F0CCC0511115C1CFC0F0D098F38F
S11308209923C9F35523B1F3951B550BBB27AA276D
S113083062177307840738F09F5F5F4F220F331FDF
S1130840441FAA1FA9F333D00E2E3AF0E0E830D0AB
S113085091505040E695001CCAF729D0FE2F27D0AE
S1130860660F771F881FBB1F261737074807AB077C
S1130870B0E809F0BB0B802DBF01FF2793585F4FF1
S11308802AF09E3F510568F092C0DCC05F3FECF354
S1130890983EDCF3869577956795B795F7959F5FB6
S11308A0C9F7880F911D9695879597F90895E1E00A
S11308B0660F771F881FBB1F621773078407BA0769
S11308C020F0621B730B840BBA0BEE1F88F7E095C4
S11308D0089504D06894B111B5C0089598D088F0F3
S11308E09F5790F0B92F9927B751A0F0D1F0660F18
S11308F0771F881F991F1AF0BA95C9F712C0B13033
S113090081F09FD0B1E008959CC0672F782F88278D
S1130910B85F39F0B93FCCF3869577956795B39571
S1130920D9F73EF490958095709561957F4F8F4FE0
S11309309F4F0895E89409C097FB3EF490958095E5
S1130940709561957F4F8F4F9F4F9923A9F0F92F91
S113095096E9BB279395F695879577956795B7950F
S1130960F111F8CFFAF4BB0F11F460FF1BC06F5FF5
S11309707F4F8F4F9F4F16C0882311F096E911C007
S1130980772321F09EE8872F762F05C0662371F028
S113099096E8862F70E060E02AF09A95660F771F3C
S11309A0881FDAF7880F9695879597F9089597F930
S11309B09F6780E870E060E008959FEF80EC089501
S11309C000240A941616170618060906089500242A
S11309D00A9412161306140605060895092E0394A4
S11309E0000C11F4882352F0BB0F40F4BF2B11F418
S11309F060FF04C06F5F7F4F8F4F9F4F089557FD77
S1130A009058440F551F59F05F3F71F04795880F78
S1130A1097FB991F61F09F3F79F08795089512160F
S1130A2013061406551FF2CF4695F1DF08C01616BB
S1130A3017061806991FF1CF86957105610508946C
S1130A400895E894BB2766277727CB0197F9089583
S1130A500BD0C4CFB5DF28F0BADF18F0952309F026
S1130A60A6CFABCF1124EECFCADFA0F3959FD1F36D
S1130A70950F50E0551F629FF001729FBB27F00D48
S1130A80B11D639FAA27F00DB11DAA1F649F66279D
S1130A90B00DA11D661F829F2227B00DA11D621FEC
S1130AA0739FB00DA11D621F839FA00D611D221FA6
S1130AB0749F3327A00D611D231F849F600D211D8A
S1130AC0822F762F6A2F11249F5750408AF0E1F02D
S1130AD088234AF0EE0FFF1FBB1F661F771F881F76
S1130AE091505040A9F79E3F510570F060CFAACFB6
S1130AF05F3FECF3983EDCF3869577956795B79561
S1130B00F795E7959F5FC1F7FE2B880F911D96958A
S1130B10879597F90895EE0FFF1F881F8BBF0790E5
S1130B20F691E02D1994BB274A3031F4992322F42D
S1130B30BDE2909581959F4F01C0BB27FB015527CE
S1130B40AA27880F991FAA1FA41710F0A41B839526
S1130B505051B9F7A05DAA3308F0A95DA19300979D
S1130B6079F7B111B1931192CB0100C0DC01FC0102
S1130B70672F71917723E1F7329704C07C916D93CD
S1130B8070836291AE17BF07C8F30895F894FFCF3E
S1130B90783A00763A0065727220636F6D006F6B6D
S1130BA00A0D006572723A627566666572206C6C35
S1130BB0656E6F2C207265696E69636961720A0DD6
S1130BC00070726F796563746F20646520636F6E63
S1130BD074726F6C2070617261206D6F746F72201B
S1130BE0504150204A6F6E617468616E204F62728A
S1130BF065646F7220323031370A0D00696E6963A3
S1130C00696172206D656E73616A6520636F6E2021
S1130C10273A270A0D706172613A20202020202093
S1130C20202020202020202020202020202020657B
S1130C306E766961723A0A0D00636F6E73756C7437
S1130C40617220765F5F5F5F5F5F5F5F5F5F5F5FC3
S1130C505F5F5F5F5F5F5F3A763F0A0D617369674D
S1130C606E617220765F5F5F5F5F5F5F5F5F5F5F94
S1130C705F5F5F5F3A765B76616C6F725D0A0D0051
S1130C80636F6E73756C74617220785F5F5F5F5F12
S1130C905F5F5F5F5F5F5F5F5F5F5F5F5F5F3A786C
S1130CA03F0A0D617369676E617220785F5F5F5FF1
S1130CB05F5F5F5F5F5F5F5F5F5F5F3A785B766137
S1130CC06C6F725D0A0D0061637469766172206DE8
S1130CD06F746F7228656E61626C65295F5F5F5F18
S1130CE05F5F5F5F5F3A65310A0D646573616374CA
S1130CF069766172206D6F746F725F5F5F5F5F5FB3
S1130D005F5F5F5F5F5F5F5F3A65300A0D00766526
S1130D107220656A656D706C6F2020202020202071
S1130D202020202020202020202020203A640A0D8A
S1130D30000A0D484F4C41210A0D0065727220656E
S1130D406E61626C654D6F746F72006572722062C1
S1130D506F62696E610065727220736574436F6EB1
S1130D607369676E6120657863656465206C696D7D
S1070D700A0D000064
S9030000FC
