S0140000656E7669615F73657269616C2E737265631E
S113000071C000008EC000008CC000008AC00000D7
S113001088C0000086C0000084C0000082C00000C8
S113002080C000007EC000007CC000007AC00000D8
S113003078C0000076C0000074C0000072C00000E8
S113004070C000006EC000006CC000006AC00000F8
S113005068C0000066C0000064C0000062C0000008
S113006060C000005EC000005CC000005AC0000018
S113007058C0000056C0000054C0000052C0000028
S113008050C000004EC000004CC000004AC0000038
S113009048C0000046C0000044C0000042C0000048
S11300A040C000003EC000003CC000003AC0000058
S11300B038C0000036C0000034C0000032C0000068
S11300C030C000002EC000002CC000002AC0000078
S11300D028C0000026C0000024C0000022C0000088
S11300E020C0000011241FBECFEFD1E2DEBFCDBF80
S11300F000E00CBF12E0A0E0B2E0E6ECF1E000E0CA
S11301000BBF02C007900D92AA31B107D9F722E0C4
S1130110AAE1B2E001C01D92AB39B207E1F732D0D7
S113012050C06ECF90911A02E92FF0E0E55EFD4FCA
S113013080839F5F1AF090931A02089510921A0216
S113014008951F93CF93DF93EC0110E006C0FE01E6
S1130150E20FF31F8081E6DF1F5F212F30E0FE01F5
S113016001900020E9F73197EC1BFD0B2E173F0798
S113017070F38091300185FD10923601DF91CF91AB
S11301801F9108951092350187E68093340188E425
S11301908093310186E080933201789480E092E08C
S11301A0D0DF88E092E0CDDF2FEF8BE792E921509A
S11301B080409040E1F700C0000080E192E0C1DFA0
S10901C0F3CFF894FFCF19
S11301C648454C4C4F0A0D00776F524C640A0D009B
S10D01D6474F4F444279450A0D00DB
S9030000FC
