S0170000636F6D616E646F732073657269616C2E7372656319
S113000079C0000096C0000094C0000092C00000B7
S113001090C000008EC000008CC000008AC00000A8
S113002088C0000086C0000084C0000082C00000B8
S113003080C000007EC000007CC000007AC00000C8
S113004078C00000C4C2000074C0000072C0000088
S113005070C000006EC000006CC000006AC00000E8
S113006068C0000066C0000064C0000062C00000F8
S113007060C000005EC000005CC000005AC0000008
S113008058C0000056C0000054C0000052C0000018
S113009050C000004EC000004CC000004AC0000028
S11300A048C0000046C0000044C0000042C0000038
S11300B040C000003EC000003CC000003AC0000048
S11300C038C0000036C0000034C0000032C0000058
S11300D030C000002EC00000DEC100002AC00000B5
S11300E03CC200009001930198019D01A201A70167
S11300F0AC01B10111241FBECFEFD1E2DEBFCDBFF1
S113010000E00CBF12E0A0E0B2E0E4ECF6E000E0B6
S11301100BBF02C007900D92AA35B107D9F723E0AF
S1130120AAE5B2E001C01D92A83FB207E1F77AD276
S1130130C7C266CF83B18695817090E00895FC01B3
S1130140E252FD4F20812223B9F0FC01E152FD4F20
S113015080E090E0AC01440F551F880F991F880F71
S1130160991F880F991F840F951F820F911DC097A7
S113017021912111EFCF089580E090E0089510922D
S1130180350187E68093340188ED8093310186E060
S113019080933201089590915A02E92FF0E0E25AD7
S11301A0FC4F80839F5F1AF090935A020895109237
S11301B05A0208951F93CF93DF93EC0110E006C019
S11301C0FE01E20FF31F8081E6DF1F5F212F30E085
S11301D0FE0101900020E9F73197EC1BFD0B2E176F
S11301E03F0770F38091300185FD10923601DF9155
S11301F0CF911F9108958130910529F482E085B94A
S113020080E090E00895892B21F415B880E090E017
S1130210089580E092E0CEDF81E090E008958FEFD2
S113022087B994B182E0892784B981E090E0E3DF63
S113023080E390E09093F3038093F2038CE390E0E7
S11302409093ED038093EC0380E090E0A0E4B2E4AB
S11302508093E4039093E503A093E603B093E7034C
S113026081E090E09093E1038093E0039093EF03A7
S11302708093EE031092F1031092F0038CE291E06C
S11302809093EB038093EA031092F5031092F40326
S11302901092E9031092E80308958091DE028835F4
S11302A069F028F4853429F18635B9F027C08637FA
S11302B0A1F0883719F0853609F51BC081E090E07C
S11302C03EDF2091EA033091EB0382179307C8F4D1
S11302D09093E9038093E803089581E090E02FDF91
S11302E080362AEE920768F49093ED038093EC0332
S11302F0089581E090E023DF7ECF089580E192E0CD
S113030059CF08952091F0033091F103F901319709
S1130310E830F10558F58827EE58FF4F8F4F95C107
S113032081E088B928C085E088B921E030E023C0A5
S113033084E088B921E030E01EC086E088B921E07D
S113034030E019C082E088B921E030E014C08AE0CE
S113035088B921E030E00FC088E088B921E030E0BE
S11303600AC089E088B921E030E005C089E192E063
S113037021DF20E030E0C90108958091EE039091DF
S1130380EF03892B99F08091F0039091F103883069
S1130390910539F481E090E09093F1038093F003A8
S11303A005C001969093F1038093F003ABCF0895B9
S11303B0CF93DF93CDB7DEB764970FB6F894DEBF63
S11303C00FBECDBFB7DE892B09F45CC08091F40366
S11303D09091F5032091E8033091E9038217930784
S11303E039F481E090E09093E3038093E2034AC000
S11303F08217930754F54091EA035091EB032417B5
S113040035071CF51092E3031092E20381E090E0BB
S11304109093F7038093F603B0DF8091F4039091F7
S1130420F50301969093F5038093F4034AE0BE012B
S11304306F5F7F4F12D186E292E0BCDECE0101965F
S1130440B9DE86E592E0B6DE1DC03323DCF01092FF
S1130450E3031092E2031092F7031092F60301975C
S11304609093F5038093F4034AE0BE016F5F7F4FDE
S1130470F4D086E292E09EDECE0101969BDE86E514
S113048092E098DE64960FB6F894DEBF0FBECDBF3F
S1130490DF91CF9108951F920F920FB60F921124FE
S11304A00BB60F922F933F934F935F936F937F936A
S11304B08F939F93AF93BF93EF93FF9380913601F4
S11304C08D3069F08A3309F510925D0210925C0256
S11304D081E090E09093DF038093DE032BC0809152
S11304E0DE039091DF03019729F5E0915C02F0911E
S11304F05D02E252FD4F1082D0DE1092DF031092B3
S1130500DE0388E292E056DE15C020915C02309151
S11305105D022038310558F4F901E252FD4F808321
S11305202F5F3F4F30935D0220935C0203C081E351
S113053092E040DEFF91EF91BF91AF919F918F9137
S11305407F916F915F914F913F912F910F900BBECF
S11305500F900FBE0F901F9018951F920F920FB619
S11305600F9211240BB60F928F93EF93FF93E091A8
S11305705B0280915A02E81779F0F0E0E25AFC4FEE
S113058080818093360180915B028F5F1AF08093A3
S11305905B0202C010925B02FF91EF918F910F906A
S11305A00BBE0F900FBE0F901F901895E1E8F0E07E
S11305B088E080838BE49CE4909389008093880096
S11305C082E080936F0080818560808308951F920C
S11305D00F920FB60F9211240BB60F922F933F93E5
S11305E04F935F936F937F938F939F93AF93BF9337
S11305F0EF93FF93DDDE95B181E0892785B9FF9103
S1130600EF91BF91AF919F918F917F916F915F9186
S11306104F913F912F910F900BBE0F900FBE0F90F3
S11306201F90189581E084B9FADDA9DDBFDF7894C5
S11306308FE492E0BFDD2FEF83ED90E32150804003
S11306409040E1F700C00000FFCFEE0FFF1F881FAE
S11306508BBF0790F691E02D1994BB274A3031F4F3
S1130660992322F4BDE2909581959F4F01C0BB2749
S1130670FB015527AA27880F991FAA1FA41710F05A
S1130680A41B83955051B9F7A05DAA3308F0A95D66
S1130690A193009779F7B111B1931192CB0100C0E6
S11306A0DC01FC01672F71917723E1F7329704C0D5
S11306B07C916D9370836291AE17BF07C8F3089560
S10706C0F894FFCFD8
S11306C465727220656E61626C654D6F746F720041
S11306D46572723A20636F6D006572726F72206284
S11306E46F62696E61007800636F6D206F6B0A0D31
S11306F4006572723A627566666572206C6C656E2A
S11307046F2C207265696E69636961720A0D000A4F
S10D07140D48454C4C4F0A0D00003F
S9030000FC
